{
  "contractName": "HelloWorld",
  "abi": [
    {
      "constant": false,
      "inputs": [],
      "name": "add",
      "outputs": [],
      "payable": false,
      "stateMutability": "nonpayable",
      "type": "function"
    },
    {
      "constant": false,
      "inputs": [],
      "name": "subtract",
      "outputs": [],
      "payable": false,
      "stateMutability": "nonpayable",
      "type": "function"
    },
    {
      "constant": true,
      "inputs": [],
      "name": "getCounter",
      "outputs": [
        {
          "name": "",
          "type": "uint256"
        }
      ],
      "payable": false,
      "stateMutability": "view",
      "type": "function"
    }
  ],
  "bytecode": "0x6080604052600560005534801561001557600080fd5b50610104806100256000396000f3006080604052600436106053576000357c0100000000000000000000000000000000000000000000000000000000900463ffffffff1680634f2be91f1460585780636deebae314606c5780638ada066e146080575b600080fd5b348015606357600080fd5b50606a60a8565b005b348015607757600080fd5b50607e60bb565b005b348015608b57600080fd5b50609260cf565b6040518082815260200191505060405180910390f35b6000808154809291906001019190505550565b600080815480929190600190039190505550565b600080549050905600a165627a7a723058203695ad196e4c7eb8e3d20cf7ad2519a7933276fe85a03d9cdc65741aa4405fbd0029",
  "source": "//solium-disable linebreak-style\r\npragma solidity >0.4.23;\r\n\r\ncontract HelloWorld {\r\n\r\n    uint256 counter = 5;\r\n\r\nfunction add()public{\r\n    counter++;\r\n}\r\nfunction subtract()public {\r\n    counter--;\r\n\r\n}\r\nfunction getCounter() public constant returns (uint256) {\r\n    return counter;\r\n} \r\n\r\n\r\n\r\n\r\n\r\n}\r\n\r\n",
  "sourcePath": "C:\\Node\\hello_cunter\\contracts\\greeting_with_counter.sol",
  "compiler": {
    "name": "solc",
    "version": "0.4.24+commit.e67f0147.Emscripten.clang"
  },
  "schemaVersion": "2.0.1",
  "updatedAt": "2018-12-15T02:40:03.115Z"
}